:100000000C94F2020C940F030C940F030C940F0346
:100010000C940F030C940F030C940F030C940F0318
:100020000C940F030C940F030C940F030C94D40F37
:100030000C940F030C940F030C940F030C940F03F8
:100040000C940F030C940F030C9451120C947D121A
:100050000C940F030C940F030C940F030C940F03D8
:100060000C940F030C940F033C4241443E00203C8F
:100070004F4B3E0020200E010F110F0202040E1004
:1000800010100E2020200E111E100E020C04060C63
:1000900004040E20020416191111112002040E117D
:1000A00011110E2002040E100E011E2004201F024A
:1000B00004081F203C21444F435459504520687484
:1000C0006D6C205055424C494320222D2F2F573321
:1000D000432F2F445444205848544D4C20312E3047
:1000E000205472616E736974696F6E616C2F2F4555
:1000F0004E222022687474703A2F2F7777772E77EC
:10010000332E6F72672F54522F7868746D6C312FB5
:100110004454442F7868746D6C312D7472616E7321
:100120006974696F6E616C2E647464223E3C68650C
:1001300061643E3C6D65746120687474702D6571F6
:100140007569763D22436F6E74656E742D547970B7
:10015000652220636F6E74656E743D2274657874D9
:100160002F68746D6C3B20636861727365743D75B4
:1001700074662D3822202F3E3C7469746C653E53A2
:100180007465726F776E696B2050696563613C2F8F
:100190007469746C653E3C7374796C652074797015
:1001A000653D22746578742F637373223E626F64B9
:1001B00079207B096261636B67726F756E642D6372
:1001C0006F6C6F723A20233333333B09636F6C6F6C
:1001D000723A2077686974653B096D617267696E70
:1001E0003A203070783B0970616464696E673A2028
:1001F0003070783B7D2E72616D6B61207B09776971
:100200006474683A2036303070783B096261636B01
:1002100067726F756E642D636F6C6F723A20233056
:1002200030303B09746578742D616C69676E3A20D3
:1002300063656E7465723B096865696768743A2026
:1002400034303070783B096D617267696E2D746F60
:10025000703A203070783B096D617267696E2D725B
:10026000696768743A206175746F3B096D617267E4
:10027000696E2D626F74746F6D3A203070783B092F
:100280006D617267696E2D6C6566743A2061757474
:100290006F3B7D2E72616D6B612070207B09636FF7
:1002A0006C6F723A20234646467D2E7573746177D3
:1002B00069656E6961207B096261636B67726F7546
:1002C0006E642D636F6C6F723A20233333333B7D42
:1002D0002367757A696B207B0977696474683A20B3
:1002E00031303070783B096865696768743A203648
:1002F0003070783B09626F726465723A2074686985
:100300006E20736F6C696420233636363B0970614A
:100310006464696E673A203570783B7D3C2F737456
:10032000796C653E3C2F686561643E3C626F647920
:100330003E3C64697620636C6173733D2272616D2B
:100340006B61223E3C68313E537465726F776E6913
:100350006B2050696563613C2F68313E3C703E54B0
:10036000656D702E20706F6D6965737A637A656E46
:1003700069613A2032312C33352073742E433C2F7F
:10038000703E3C703E47727A616E69653A20576CE8
:1003900061637A6F6E653C2F703E3C703E416B74BA
:1003A00075616C6E792070726F6772616D3A20644E
:1003B0007A69656E3C2F703E3C627574746F6E2076
:1003C00069643D2267757A696B22206F6E636C6980
:1003D000636B3D2277696E646F772E6C6F63617417
:1003E000696F6E2E687265663D2773742E68746D32
:1003F0006C3F747279623D3027223E57796C61639D
:100400007A3C2F627574746F6E3E3C627574746FC3
:100410006E2069643D2267757A696B22206F6E6376
:100420006C69636B3D2277696E646F772E6C6F63C6
:100430006174696F6E2E687265663D2773742E68ED
:10044000746D6C3F747279623D3127223E447A6943
:10045000656E3C2F627574746F6E3E3C6275747489
:100460006F6E2069643D2267757A696B22206F6E1A
:10047000636C69636B3D2277696E646F772E6C6F76
:10048000636174696F6E2E687265663D2773742EA2
:1004900068746D6C3F747279623D3227223E4E6FF4
:1004A000633C2F627574746F6E3E3C703E266E62C4
:1004B00073703B203C2F703E3C627574746F6E20ED
:1004C00069643D2267757A696B22206F6E636C697F
:1004D000636B3D2277696E646F772E6C6F63617416
:1004E000696F6E2E687265663D277374322E68746C
:1004F0006D6C27223E557374617769656E69613C46
:100500002F627574746F6E3E3C703E266E6273701F
:100510003B203C2F703E3C703E266E6273703B3C2D
:100520002F703E3C2F6469763E3C2F626F64793EAB
:100530003C2F68746D6C3E003C48544D4C3E423C30
:100540002F48544D4C3E00B400380577323A0077BE
:10055000313A00202020200020463A0020453A0071
:1005600020443A00202020200020433A0020423A34
:1005700000413A002C00546E3A002C0054643A00BA
:10058000200044004E00530052005D00200058003F
:100590005B00204320002C00543A002052783D009C
:1005A0004D793D00202020202020202020202020C8
:1005B00020202020002020286E616429002020288F
:1005C0006F646229002020202041544D454741336B
:1005D00032385000537465726F776E696B205069C2
:1005E0006563610011241FBECFEFD8E0DEBFCDBF31
:1005F00012E0A0E0B1E0EAEEFCE202C005900D924C
:10060000A63AB107D9F713E0A6EAB2E001C01D92FD
:10061000AF32B107E1F70E9429120C9473160C94C3
:10062000000084B1837C84B984B18C6284B981E593
:100630008CBD81E08DBD08958EBD0DB407FEFDCF4C
:100640008EB50895883010F08FEF0895E82FF0E010
:10065000E251FD4F80810895883088F4683078F445
:10066000E82FF0E0E251FD4F8081992787FD9095BA
:1006700002C0959587956A95E2F7817008958FEF8E
:1006800008951F93883010F01FEF0DC090E08796FB
:10069000880F991F81600E94D20D0E94470E182F6B
:1006A00010950E94230E812F1F9108951F93162FDE
:1006B000883080F4683070F40E9441038F3F59F015
:1006C000992787FD909502C0959587951A95E2F731
:1006D000817001C08FEF1F9108951F93282F8830DC
:1006E00068F5683058F5A82FB0E0FD01E251FD4FE4
:1006F000E081442351F081E090E002C0880F991F0F
:100700006A95E2F71E2F182B0AC081E090E002C024
:10071000880F991F6A95E2F7182F10951E23A25192
:10072000BD4F1C93295D822F880F0E94D20D812F0F
:100730000E942B0E0E94230E80E001C08FEF1F91BC
:10074000089540E00E946D03089541E00E946D030A
:1007500008951F93782F842F783008F03FC0A42F7E
:10076000B0E0462F50E04A1B5B0B9FEF4F3F59070D
:10077000ACF1683098F5662389F1882379F1E72F89
:10078000F0E0E251FD4F60814F5F5F4F332727FD5F
:100790003095042E02C0220F331F0A94E2F781E045
:1007A00090E002C0880F991FAA95E2F7019702C056
:1007B000880F991F4A95E2F7182F10951623822368
:1007C000182B1083795D872F880F0E94D20D812FFF
:1007D0000E942B0E0E94230E80E001C08FEF1F911C
:1007E00008951F93162F883010F08FEF0FC0E82F59
:1007F000F0E0E251FD4F6083895D880F0E94D20DC9
:10080000812F0E942B0E0E94230E80E01F910895DD
:100810000E94CC0D8AE18A95F1F780E090E0FC011E
:10082000E251FD4F1082019688309105C1F708957D
:100830002A988FEF0E941C032A9A0895CF93DF9382
:10084000EC010E941804982F907486FF05C0209731
:1008500019F0869587708883892FDF91CF9108954D
:100860002A9881EE0E941C032A9A08952A9882EE03
:100870000E941C032A9A0895FF920F931F93CF930F
:10088000DF93162F072FF42E2A988F7180620E9413
:100890001C03212F302FC901EC0110E004C0899105
:1008A0000E941C031F5F1F15D0F32A9ADF91CF917E
:1008B0001F910F91FF9008951F93162F2A988F7103
:1008C00080620E941C03812F0E941C032A9A1F91A0
:1008D00008950F931F93CF93DF938C012A9881E69D
:1008E0000E941C03C0E0D0E08FEF0E941C03F801BF
:1008F000EC0FFD1F80832196C630D105A9F72A9AF7
:1009000087E060E40E945C040E94180485FF04C034
:1009100087E060E20E945C04DF91CF911F910F910C
:100920000895FF920F931F93CF93DF93162F072FF6
:10093000F42E2A988F710E941C03212F302FC90199
:10094000EC0110E005C08FEF0E941C0389931F5F2C
:100950001F15C8F32A9ADF91CF911F910F91FF9035
:1009600008952A988F710E941C038FEF0E941C0328
:100970002A9A089580E00E94B104682F6C6080E09C
:100980000E945C04089586E00E94B104682F677D90
:10099000606286E00E945C04089586E00E94B104D3
:1009A000682F666086E00E945C040895289880E0C5
:1009B0000E94B104682F6E7F80E00E945C0480E09A
:1009C0000E94B104682F626080E00E945C0487E0AE
:1009D00060E70E945C040E9430048CE291E0019781
:1009E000F1F70895EF92FF920F931F93DF93CF9348
:1009F000CDB7DEB7C456D0400FB6F894DEBF0FBEF9
:100A0000CDBF7C0180E091E0F70109950E941804B8
:100A100000D000D000D0EDB7FEB731968E010F5F49
:100A20001F4FADB7BEB712961C930E93119727E0D8
:100A300031E033832283848315820E9483138DB730
:100A40009EB706960FB6F8949EBF0FBE8DBFC80125
:100A5000F701099580E00E94B10400D000D000D0D9
:100A6000EDB7FEB73196ADB7BEB712961C930E9395
:100A7000119726E131E033832283848315820E941B
:100A800083138DB79EB706960FB6F8949EBF0FBE20
:100A90008DBFC801F701099585E00E94B10400D01F
:100AA00000D000D0EDB7FEB73196ADB7BEB7129605
:100AB0001C930E93119725E231E0338322838483C4
:100AC00015820E9483138DB79EB706960FB6F894D1
:100AD0009EBF0FBE8DBFC801F701099586E00E9439
:100AE000B10400D000D000D0EDB7FEB73196ADB75D
:100AF000BEB712961C930E93119723E331E0338314
:100B00002283848315820E9483138DB79EB7069635
:100B10000FB6F8949EBF0FBE8DBFC801F7010995AF
:100B200081E00E94B10400D000D000D0EDB7FEB744
:100B30003196ADB7BEB712961C930E93119724E46D
:100B400031E033832283848315820E9483138DB71F
:100B50009EB706960FB6F8949EBF0FBE8DBFC80114
:100B6000F701099582E00E94B10400D000D000D0C6
:100B7000EDB7FEB73196ADB7BEB712961C930E9384
:100B8000119722E531E033832283848315820E940A
:100B900083138DB79EB706960FB6F8949EBF0FBE0F
:100BA0008DBFC801F701099588E00E94B10400D00B
:100BB00000D000D0EDB7FEB73196ADB7BEB71296F4
:100BC0001C930E93119724E631E0338322838483B0
:100BD00015820E9483138DB79EB706960FB6F894C0
:100BE0009EBF0FBE8DBFC801F701099587E791E051
:100BF000F7010995CC59DF4F0FB6F894DEBF0FBE51
:100C0000CDBFCF91DF911F910F91FF90EF9008958D
:100C1000DC01149620E030E0FB01E20FF31F8C9121
:100C200080832F5F3F4F119725303105A9F7089535
:100C30000F931F93DF93CF9300D000D00F92CDB7C7
:100C4000DEB7AC01A8E9B1E0FC0185E001900D92AE
:100C50008150E1F7CA018E010F5F1F4FB8010E945A
:100C600008068AE0B80145E00E943C0480E1B80132
:100C700045E00E943C040F900F900F900F900F9052
:100C8000CF91DF911F910F9108950F931F93DF93E1
:100C9000CF9300D000D00F92CDB7DEB7FB018823F1
:100CA000A9F42AE731E0AB0185E0DA010D90AD014E
:100CB000D9010D929D018150C1F7CF018E010F5FC7
:100CC0001F4FB8010E9408068AE016C08130C9F49F
:100CD0002FE731E0AB0185E0DA010D90AD01D901DC
:100CE0000D929D018150C1F7CF018E010F5F1F4F03
:100CF000B8010E9408068BE0B80145E00E943C0460
:100D000041C0823071F424E831E0AB0185E0DA01C2
:100D10000D90AD01D9010D929D018150C1F78CE07C
:100D20002EC0833071F429E831E0AB0185E0DA01AF
:100D30000D90AD01D9010D929D018150C1F78DE05B
:100D40001EC0843071F42EE831E0AB0185E0DA0199
:100D50000D90AD01D9010D929D018150C1F78EE03A
:100D60000EC0853079F423E931E0AB01DA010D9052
:100D7000AD01D9010D929D018150C1F78FE06481D1
:100D80000E945C040F900F900F900F900F90CF91E6
:100D9000DF911F910F91089580E06AE771E00E9452
:100DA000450680E00E94B104682F616080E00E94E7
:100DB0005C0480E00E94B104682F626080E00E94C1
:100DC0005C0487E060E70E945C040E9436040E9495
:100DD0003004289A8CE291E00197F1F708950F937F
:100DE0001F93CF93DF938C010E94D6042A9880EA48
:100DF0000E941C03C0E0D0E0F801EC0FFD1F8081D1
:100E00000E941C032196C630D105B1F72A9A289A70
:100E100088E28A95F1F728981AE1812F8A95F1F7EF
:100E20000E9418048073C9F30E941804082F85E0FB
:100E300061E20E945C0480E00E94B104682F6D7F33
:100E400080E00E945C040E94CC0610E085E01695CC
:100E500007958A95E1F7802F8170DF91CF911F91DF
:100E60000F910895229A209A0E94110328982A9A95
:100E700080E197E20197F1F70E94CD040E94C3043C
:100E80000E94BA0484E067E40E945C048CE160E0A4
:100E90000E945C0485E061E20E945C0481E166E0FE
:100EA0000E945C0482E166E00E945C0483E166E0EB
:100EB0000E945C0484E166E00E945C0485E166E0D7
:100EC0000E945C0486E166E00E945C0482E060E0CF
:100ED0000E945C0482E00E94B104682F616082E09D
:100EE0000E945C0482E00E94B104682F626082E08C
:100EF0000E945C0482E00E94B104682F646082E07A
:100F00000E945C0482E00E94B104682F686082E065
:100F10000E945C0482E00E94B104682F606182E05C
:100F20000E945C0482E00E94B104682F606282E04B
:100F30000E945C0481E00E94B104682F6E7F81E012
:100F40000E945C0481E00E94B104682F6D7F81E003
:100F50000E945C0481E00E94B104682F6B7F81E0F5
:100F60000E945C0481E00E94B104682F677F81E0E9
:100F70000E945C0481E00E94B104682F6F7E81E0D2
:100F80000E945C0481E00E94B104682F6F7D81E0C3
:100F90000E945C0480E06AE771E00E94450681E0FF
:100FA0006FE771E00E94450682E064E871E00E940C
:100FB000450683E069E871E00E94450684E06EE83A
:100FC00071E00E94450685E063E971E00E944506F4
:100FD00088E991E00E9418060E94CC0608950895C1
:100FE000FC0120E090E00BC08191282788E03CE8DC
:100FF00020FB26950EF423278A95D1F79F5F96173D
:1010000098F3822F0895823081F08330D1F08130BF
:1010100019F55C9888EE93E028EC30E0F9013197FF
:10102000F1F70197D9F75C9A08955E9888EE93E0FE
:1010300028EC30E0F9013197F1F70197D9F75E9A82
:1010400008955F9888EE93E028EC30E0F90131973D
:10105000F1F70197D9F75F9A0895FF920F931F93C5
:10106000DF93CF93CDB7DEB727970FB6F894DEBFE7
:101070000FBECDBFF82E8B01198282E00E940308BB
:10108000CE0101960E941E04882309F473C0C80192
:101090000E946904F80181818F1509F06BC083E01B
:1010A0000E94030890E020E030E0F801E20FF31F17
:1010B0008081982748E08CE890FB96950EF498275D
:1010C0004A95D1F72F5F3F4F2530310571F731E059
:1010D0003A831B82F8018581891709F022C024E038
:1010E0002C8390E0892F832748E03CE880FB86959D
:1010F0000EF483274A95D1F7892738E09CE880FBD6
:1011000086950EF489273A95D1F7822728E09CE846
:1011100080FB86950EF489272A95D1F78D8383E08D
:1011200021C022E02C8390E0892F832748E03CE80F
:1011300080FB86950EF483274A95D1F7892738E0FE
:101140009CE880FB86950EF489273A95D1F7822793
:1011500028E09CE880FB86950EF489272A95D1F734
:101160008D8382E00E940308CE0102960E94EF0662
:1011700081E001C080E027960FB6F894DEBF0FBE75
:10118000CDBFCF91DF911F910F91FF9008952F92C6
:101190003F924F925F926F927F928F929F92AF9207
:1011A000BF92CF92DF92EF92FF920F931F93DF9344
:1011B000CF93CDB7DEB72D970FB6F894DEBF0FBE35
:1011C000CDBF282E362E7A01198203E032E0C32EDD
:1011D000D12CCC0EDD1E27E0422E512C4C0E5D1E74
:1011E0003E010894611C711C90E4892E9CE9992EA3
:1011F00088E0A82EB12CAC0EBD1E2A823B82F701DE
:1012000080818C8381818D83F3E0FE83F60190E001
:101210008191982728E08CE890FB96950EF498270A
:101220002A95D1F7E415F50599F79F8381E00E948F
:101230000308C6010E94EF0610E004C01F5FC4014E
:101240000197F1F7C3010E941E04882311F4193C91
:10125000A8F3C5010E94690481E00E9403088A8501
:10126000843051F48BE060E00E94FC0A8EE690E04E
:101270000E94660B81E00CC0015009F0BECF8BE0EC
:1012800060E00E94FC0A88E690E00E94660B82E023
:101290002D960FB6F894DEBF0FBECDBFCF91DF9174
:1012A0001F910F91FF90EF90DF90CF90BF90AF9084
:1012B0009F908F907F906F905F904F903F902F9076
:1012C0000895882321F08091A602877F03C0809132
:1012D000A60288608093A6026091A60280E00E9428
:1012E000F103089580E062E00E94A50300C080E061
:1012F00062E00E94A10308951F93182F662321F036
:101300008091A602816003C08091A6028E7F8093A7
:10131000A6028091A6028D7F8093A6026091A6020C
:1013200080E00E94F1038091A6028F778093A6024D
:101330008091A6028F7B8093A6028091A6028F7D6A
:101340008093A6028091A6028F7E8093A60217FF4B
:1013500005C08091A60280688093A60216FF05C092
:101360008091A60280648093A60215FF05C080913B
:10137000A60280628093A60214FF05C08091A60297
:1013800080618093A6026091A60280E00E94F10332
:101390000E9472098091A6028F778093A6028091A5
:1013A000A6028F7B8093A6028091A6028F7D8093F8
:1013B000A6028091A6028F7E8093A60213FF05C02D
:1013C0008091A60280688093A60212FF05C08091DA
:1013D000A60280648093A60211FF05C08091A60238
:1013E00080628093A60210FF05C08091A6028061F2
:1013F0008093A6026091A60280E00E94F1030E9401
:1014000072098091A60280618093A6028091A60253
:1014100080628093A6028091A60280648093A602D7
:101420008091A60280688093A6026091A60280E067
:101430000E94F1031F9108950F931F93CF93DF93A1
:101440008C0180E460E00E947C09C0E0D0E0F801FB
:10145000EC0FFD1FE4918E2F61E00E947C09219624
:10146000C034D105A1F780E860E00E947C09DF91DB
:10147000CF911F910F91089584E790E00E941C0A7C
:1014800008951F93882321F08091A602816003C0F4
:101490008091A6028E7F8093A6028091A602826030
:1014A0008093A6026091A60280E00E94F10380E092
:1014B00062E00E94A50300C080E064E00E942C036B
:1014C000182F80E062E00E94A10300C080E062E08B
:1014D0000E94A50300C080E064E00E942C031295E6
:1014E000107F8F70182B80E062E00E94A103812F93
:1014F0001F91089580E00E94410A87FDFBCF84E0A0
:1015000090E00197F1F780E00E94410A08950E945F
:101510007A0A90E008951F93182F0E947A0A812F6B
:1015200061E00E947C091F9108951F93182F0E946B
:101530007A0A812F60E00E947C091F91089582E061
:101540000E94950A089581E00E94950A0895FF92ED
:101550000F931F93F82E0E9408041092A602609128
:10156000A60280E00E94F10380E09DE70197F1F779
:101570008091A60280628093A6028091A60280617B
:101580008093A6026091A60280E00E94F1030E946F
:10159000720980E097E20197F1F70E94720900E872
:1015A00010E0C8010197F1F70E947209C801019784
:1015B000F1F78091A6028F7E8093A6026091A60229
:1015C00080E00E94F1030E947209C8010197F1F7BF
:1015D00088E20E94950A88E00E94950A0E94A30A68
:1015E00086E00E94950A8F2D0E94950A0E943C0A6F
:1015F0001F910F91FF900895662311F4805809C040
:10160000613011F4805405C0623011F48C5601C071
:101610008C520E94950A08951F93182F8F3B19F141
:10162000803C38F4833BB9F0893B79F08C39E1F4A4
:1016300018C08A3E71F08B3E18F4863EA9F407C0AC
:10164000813F59F0833F81F40AC010E00DC011E0E2
:101650000BC012E009C013E007C014E005C015E09C
:1016600003C016E001C017E00E947A0A982F1A30D2
:1016700099F4843110F480E40BC08054843110F468
:1016800084E106C094519C3210F080E001C084E5F2
:1016900080580E94950A18C0803111F480EC0BC06C
:1016A000803511F484E907C0843211F484ED03C05D
:1016B000843621F480E860E00E947C090E947A0A66
:1016C000812F61E00E947C091F910895CF93DF93E1
:1016D000EC0102C00E940C0BFE012196849188232C
:1016E000C9F7DF91CF910895CF93DF93EC0102C04A
:1016F0000E940C0B89918823D9F7DF91CF9108952F
:101700000F931F93DF93CF93CDB7DEB72A970FB612
:10171000F894DEBF0FBECDBF8E010F5F1F4FB80123
:101720004AE050E00E946213C8010E94740B2A969E
:101730000FB6F894DEBF0FBECDBFCF91DF911F91E2
:101740000F9108950F931F93CF93DF93EC018B01BB
:101750008DE991E00E94F41280E197E228EC30E0FC
:10176000F9013197F1F70197D9F70E941C1388EA24
:1017700091E00E94F41280E197E228EC30E0F90158
:101780003197F1F70197D9F70E941C1387EB91E08D
:101790000E94F412CE010E94F41281EC91E00E94AA
:1017A000F41280E197E228EC30E0F9013197F1F78B
:1017B0000197D9F70E941C13C8010E94F4128DE012
:1017C0000E94DE1280E197E228EC30E0F9013197C7
:1017D000F1F70197D9F70E941C138AE10E94DE12EB
:1017E00080E395E728EC30E0F9013197F1F70197B4
:1017F000D9F70E941C13DF91CF911F910F9108958B
:10180000CF92DF92EF92FF920F931F93CF93DF93CC
:101810007C01EC0109900020E9F7C81BD90B229745
:101820000E940F138C179D07D9F7DD24CC240BC021
:10183000EE0DFF1D008110E00E94C112081719076C
:1018400009F4C394D394ED2DF0E0EC17FD0780F379
:1018500020E030E08C2D90E08C179D0711F421E002
:1018600030E0C901DF91CF911F910F91FF90EF9070
:10187000DF90CF900895CF92DF92EF92FF921F9367
:10188000CF93DF937C016B010E940F138E159F0590
:10189000D9F710E006C00E94C112CC0DDD1D88836F
:1018A0001F5FC12FD0E0CE15DF05ACF3DF91CF91E4
:1018B0001F91FF90EF90DF90CF9008950F931F93AB
:1018C000CF93DF930E94A30A80E060E00E94FC0AAD
:1018D0000E940F13082F10E0C8ECD0E00E94C11244
:1018E00028EE33E0FE013197F1F721503040D1F777
:1018F0008D3029F484EC91E00E94F41202C00E9421
:101900000C0B1F5F011750F7DF91CF911F910F91C3
:1019100008950E94F4128DE00E94DE1280E29EE49F
:1019200028EC30E0F9013197F1F70197D9F70E94DF
:101930005E0C0E941C1308958DE991E00E94F41240
:1019400080E197E228EC30E0F9013197F1F7019757
:10195000D9F70E945E0C0E941C1388EA91E00E9455
:10196000F41280E197E228EC30E0F9013197F1F7C9
:101970000197D9F70E945E0C0E941C13089587EC12
:1019800091E00E94F41280E197E228EC30E0F90146
:101990003197F1F70197D9F70E945E0C0E941C1352
:1019A000089580ED91E00E94F41280E395E728EC21
:1019B00030E0F9013197F1F70197D9F70E945E0CF9
:1019C0000E941C1308958BED91E00E94F41280E3B5
:1019D00095E728EC30E0F9013197F1F70197D9F755
:1019E0000E945E0C0E941C130895CF92DF92EF922A
:1019F000FF920F931F93DF93CF93CDB7DEB76E9710
:101A00000FB6F894DEBF0FBECDBFDE015196EAE8F7
:101A1000F2E08EE001900D928150E1F70E940F13E9
:101A20001816190614F0EE24A7C088EE93E028ECEF
:101A300030E0F9013197F1F70197D9F700E035E08F
:101A4000E32EF12CEC0EFD1E0E94C112182F0E94F5
:101A5000DE12F701E00FF11D1083112309F40CE0F1
:101A60000F5F0C3088F38E010F5E1F4F24E6E22ECD
:101A7000FF24F39495E0C92ED12CCC0EDD1EF80185
:101A800060817181C6010E944813009709F0EF2C14
:101A9000F3940E5F1F4FF9E0FF1689F784E0E81614
:101AA00091F18E1550F0E2E0EE1689F0EE15B0F0EF
:101AB000F1E0EF1609F05CC030C086E0E81649F1AD
:101AC000E81620F1E7E0EE1609F052C029C082EFD7
:101AD00091E00E94F4128CEF91E010C085E092E05A
:101AE0000E94F4128091F60290E08E010F5F1F4F6A
:101AF000B8014AE050E00E946213C8010E94F4124B
:101B000082E092E008C08BE092E005C08AE192E0BA
:101B100002C089E292E00E94F4128DEE91E02AC0A8
:101B20009C85892F80538A3018F5903331F41092B8
:101B3000F6028AE392E00E94F4128C85813339F434
:101B400081E08093F60280E492E00E94F4128C859A
:101B5000823339F482E08093F60286E492E00E94B8
:101B6000F4128DEE91E00E94F41287E0E82E04C09A
:101B700085EE91E00E94F4128E2D6E960FB6F894C9
:101B8000DEBF0FBECDBFCF91DF911F910F91FF90B0
:101B9000EF90DF90CF9008951092B90088E880937D
:101BA000B8000895982F84EA8093BC008091BC000F
:101BB00087FFFCCF8091B900887F883021F0803189
:101BC00011F081E008959093BB0084E88093BC00FD
:101BD0008091BC0087FFFCCF9091B900987F98312D
:101BE00011F480E0089580E0903409F081E00895D8
:101BF000982F44EA34E824E94093BC008091BC006B
:101C000087FFFCCF8091B900887F883011F0803148
:101C100099F79093BB003093BC008091BC0087FF84
:101C2000FCCF8091B900887F803211F0883539F47B
:101C30002093BC008091BC0084FDFCCFDDCF0895D3
:101C40000E94D20D089584E98093BC008091BC006D
:101C500084FDFCCF08958093BB0084E88093BC0092
:101C60008091BC0087FFFCCF8091B90090E0887F15
:101C7000883209F091E0892F089584EC8093BC00AC
:101C80008091BC0087FFFCCF8091BB00089584E861
:101C90008093BC008091BC0087FFFCCF8091BB008B
:101CA00008950E948A0E882339F08CEC0E94A50EBC
:101CB00084E40E94A50E8FEF08950F931F93CF9396
:101CC000DF938C010E948A0E882319F420E030E013
:101CD00014C08CEC0E94A50E8EEB0E94A50EC0E0F5
:101CE000D0E00E94BF0EF801EC0FFD1F808321960B
:101CF000C930D105B1F721E030E0C901DF91CF91C2
:101D00001F910F910895882319F05D9A559A0895AF
:101D1000559808955D984D9902C080E00895559AB0
:101D200028EE33E0C9010197F1F755988AEB8A95BF
:101D3000F1F74D9905C0C9010197F1F781E00895C8
:101D4000C9010197F1F780E008955D9820E04AEB22
:101D500032E1559A80FF06C0932F9A95F1F7559876
:101D6000942F05C0942F9A95F1F75598932F9A9533
:101D7000F1F72F5F283011F08695EBCF0895559835
:101D800020E080E032E14AEB559A932F9A95F1F7E3
:101D90005598932F9A95F1F786954D998068942FD1
:101DA0009A95F1F72F5F283079F708950F931F93D5
:101DB000CF93DF938C010E948A0E882381F083E306
:101DC0000E94A50EC0E0D0E00E94BF0EF801EC0F0B
:101DD000FD1F80832196C930D105B1F781E0DF91E5
:101DE000CF911F910F91089581E008950F931F9354
:101DF000DF93CF9300D000D0CDB7DEB780E060E0B6
:101E00000E94FC0A8FE495E00E94660B8CE690E04D
:101E10008E010F5F1F4FB8014AE050E00E9462132D
:101E2000C8010E94740B8BE495E00E94660B80E071
:101E300090E0B8014AE050E00E946213C8010E949D
:101E4000740B0F900F900F900F90CF91DF911F9117
:101E50000F910895BF92CF92DF92EF92FF920F936E
:101E60001F93D0901803E090FD02CC24DE1410F4F0
:101E7000CC24C394B0901903FF24BB2011F4FF2499
:101E8000F39400E0DE1409F401E080912003E82FD0
:101E9000F0E080911F03682F70E020E0CF01861BE7
:101EA000970BE817F9070CF421E02023A22FB0E0EC
:101EB00040E050E0BB2011F441E050E09D012423BC
:101EC00035238C2D8F2190E0282B392B232B19F0D3
:101ED00081E08093130310E0ED1408F411E080E03A
:101EE0006E0F7F1F6E177F070CF481E00823602FB1
:101EF00070E046235723F1228F2D90E0482B592B79
:101F0000452B11F01092130340E081E0B81609F45C
:101F100041E020E030E081E0B81611F421E030E04B
:101F2000A223B323C4228C2D90E0A82BB92BAB2B7A
:101F300019F081E080931303622373231423812F0C
:101F400090E0682B792B672B11F01092130382E03D
:101F5000B81611F4109213031F910F91FF90EF9098
:101F6000DF90CF90BF9008954A9906C01092080361
:101F7000109207034A9BFECF08958AB184708AB9F4
:101F80005A9A8AB188708AB95B9A8AB184708AB980
:101F90005A9A8AB188708AB95B9A549A569A579A13
:101FA0005C9A5E9A5F9A08951F920F920FB60F92F5
:101FB00011248F939F93F89480911D0390911E0399
:101FC000019690931E0380931D03809107039091C7
:101FD000080301969093080380930703C29721F5A5
:101FE0004A9907C081E08093210310922203109246
:101FF00023034B9907C01092210381E080932203B1
:10200000109223034A9907C01092210310922203D1
:1020100081E0809323034B9903C081E080932403E4
:10202000109208031092070378949F918F910F905C
:102030000FBE0F901F901895F89410928000E1E861
:10204000F0E0108280818B60808310928500109276
:1020500084008CE790E09093890080938800EFE6FD
:10206000F0E0808182608083789408950F931F93BD
:1020700080E060E00E94FC0A81E795E00E94660B28
:1020800004E113E08091010390E0B8014AE050E0E0
:102090000E946213C8010E94740B8DE695E00E94B5
:1020A000660B8091020390E0B8014AE050E00E9484
:1020B0006213C8010E94740B89E695E00E94660BCA
:1020C0008091030390E0B8014AE050E00E9462135F
:1020D000C8010E94740B84E695E00E94660B80E0C4
:1020E00061E00E94FC0A80E695E00E94660B809108
:1020F000040390E0B8014AE050E00E946213C80176
:102100000E94740B8CE595E00E94660B809105039C
:1021100090E0B8014AE050E00E946213C8010E94BA
:10212000740B88E595E00E94660B8091060390E0B1
:10213000B8014AE050E00E946213C8010E94740B8B
:1021400083E595E00E94660B1F910F91089580E052
:1021500060E00E94FC0A88E995E00E94660B80918D
:10216000180390E064E173E04AE050E00E946213DB
:1021700084E193E00E94740B86E995E00E94660B6F
:102180008091FF0290E064E173E04AE050E00E9439
:10219000621384E193E00E94740B82E995E00E944F
:1021A000660B8BE060E00E94FC0A80E995E00E94EB
:1021B000660B80911303813019F48EE895E002C01C
:1021C0008CE895E00E94660B8AE895E00E94660B19
:1021D00080912E03882319F488E895E002C086E8F0
:1021E00095E00E94660B80911903813019F484E810
:1021F00095E002C082E895E00E94660B8091190389
:10220000823021F480E895E00E94660B80E061E076
:102210000E94FC0A8CE795E00E94660B8091FD020B
:1022200090E064E173E04AE050E00E94621384E1D0
:1022300093E00E94740B8AE795E00E94660B809100
:10224000200390E064E173E04AE050E00E946213F2
:1022500084E193E00E94740B86E795E00E94660B90
:102260008091FB0290E064E173E04AE050E00E945C
:10227000621384E193E00E94740B84E795E00E946E
:10228000660B8091000390E064E173E04AE050E067
:102290000E94621384E193E00E94740B08958CE025
:1022A0000E94A70A0E949F0A80E00E9461090E9482
:1022B000A30A80E060E00E94FC0A84ED95E00E94A1
:1022C000660B80E061E00E94FC0A85EC95E00E94CC
:1022D000660B88E893E128EC30E0F9013197F1F7DB
:1022E0000197D9F780E060E00E94FC0A80919F028C
:1022F0009091A0020E94740B80912E03882319F400
:102300008DEB95E002C085EB95E00E94660B80E0C6
:1023100061E00E94FC0A84EA95E00E94660B80E07E
:1023200061E00E94FC0A80EA95E00E94660B8091C1
:10233000FC0290E064E173E04AE050E00E94621326
:1023400084E193E00E94740B8BE995E00E94660B98
:102350008091FE0290E064E173E04AE050E00E9468
:10236000621384E193E00E94740B88E893E128EC07
:1023700030E0F9013197F1F70197D9F70E94A30AEC
:1023800008950F931F930091A7021091A802C8010E
:102390000E9484158093FC02C80101960E94841556
:1023A0008093FE02C80102960E94841580932E033A
:1023B000C80108960E9484158093FD02C801099601
:1023C0000E94841580932003C8010A960E948415F8
:1023D0008093FB02C8010B960E9484158093000332
:1023E000C8010C960E94841580931F031F910F91C2
:1023F00008950E94510E8CE49DE128EC30E0F90133
:102400003197F1F70197D9F7F89485E293E00E94AC
:102410005D0E7894209125039091260380E0820F31
:10242000911D60E170E00E942113609318032F70EA
:1024300086E0289F900111242093FF0284E6689F84
:10244000B0011124620F731F70930A036093090394
:102450000895DF93CF9300D000D00F92CDB7DEB7B1
:10246000DE011196E1EAF2E085E001900D928150E3
:10247000E1F70E943207CE0101960E941806789477
:102480001092F6020E941C100E94C1110E94BD0F02
:102490000E944F110E94F9110E94A7100E942A0F5A
:1024A000F9CF1F920F920FB60F9211242F938F9393
:1024B0009F93EF93FF939091C0002091C600E0910D
:1024C000EB02EF5FEF718091EC02E81711F482E00C
:1024D00008C0892F8871E093EB02F0E0E753FD4FCD
:1024E00020838093ED02FF91EF919F918F912F9127
:1024F0000F900FBE0F901F9018951F920F920FB65E
:102500000F9211248F939F93EF93FF939091E90281
:102510008091EA02981769F0E091EA02EF5FEF71AB
:10252000E093EA02F0E0E755FD4F80818093C6001A
:1025300005C08091C1008F7D8093C100FF91EF9114
:102540009F918F910F900FBE0F901F9018959C0137
:102550001092E9021092EA021092EB021092EC0241
:1025600097FF04C082E08093C0003F773093C5009E
:102570002093C40088E98093C10086E08093C20064
:1025800008959091EB028091EC02981719F420E0E5
:1025900031E012C0E091EC02EF5FEF71E093EC02EA
:1025A000F0E0E753FD4F30812091ED02922F80E063
:1025B000AC01430F511D9A01C9010895282F909134
:1025C000E9029F5F9F718091EA029817E1F3E92F7A
:1025D000F0E0E755FD4F20839093E9028091C10020
:1025E00080628093C1000895CF93DF93EC0103C014
:1025F00021960E94DE1288818823D1F7DF91CF9146
:102600000895CF93DF93EC0102C00E94DE12FE0119
:10261000219684918823C9F7DF91CF910895809105
:10262000EB022091EC0290E04F96821B91096FE142
:1026300070E00E94211308958091EC028093EB02D8
:10264000089597FB092E07260AD077FD04D00CD0F9
:1026500006D000201AF4709561957F4F0895F6F723
:10266000909581959F4F0895AA1BBB1B51E107C010
:10267000AA1FBB1FA617B70710F0A61BB70B881F12
:10268000991F5A95A9F780959095BC01CD010895A1
:10269000FB0151915523A9F0BF01DC014D91451774
:1026A0004111E1F759F4CD010190002049F04D911D
:1026B00040154111C9F3FB014111EFCF81E090E0DA
:1026C00001970895FB019F01E8944230C4F0453220
:1026D000B4F44A3029F497FB1EF4909581959F4FEE
:1026E000642F77270E943413805D8A330CF0895D54
:1026F0008193CB010097A1F716F45DE2519310820C
:10270000C9010C94A215AEE0B0E0E9E8F3E10C9445
:102710004A160D891E8986E08C831A8309838FEF00
:102720009FE79E838D839E01275E3F4FCE010196DA
:102730006F89788DA9010E94A7132F813885020F18
:10274000131FF80110822E96E4E00C946616ABE09D
:10275000B0E0EDEAF3E10C943C163C012B015A0188
:10276000FC0117821682838181FD03C06FEF7FEF2A
:10277000C6C19AE0892E1E010894211C311CF30168
:102780002381F20123FD859123FF81912F0188236D
:1027900009F4B2C1853239F423FD859123FF81917B
:1027A0002F01853229F490E0B3010E94B215E7CFE2
:1027B000982FFF24EE249924FFE1FF15D0F09B32DF
:1027C00069F09C3228F4903259F0933291F40EC0A3
:1027D0009D3249F0903369F441E024C052E0F52A7B
:1027E00084E0F82A28C098E0F92A25C0E0E1FE2A12
:1027F00022C0F7FC29C0892F80538A3070F4F6FE7E
:1028000005C0989C902C1124980E15C0E89CE02CD3
:102810001124E80EF0E2FF2A0EC09E3229F4F6FCE5
:102820006BC140E4F42A07C09C3619F450E8F52A3D
:1028300002C0983649F4F20123FD959123FF91914E
:102840002F01992309F0B8CF892F8554833018F0D0
:102850008052833038F444E050E0A40EB51E5FE3AC
:1028600059830FC0933631F0933779F0933509F0DF
:1028700056C020C0F5018081898342E050E0A40E5B
:10288000B51E610101E010E012C0F501C080D180E9
:10289000F6FC03C06FEF7FEF02C0692D70E042E0ED
:1028A00050E0A40EB51EC6010E9497158C015FE78B
:1028B000F52214C0F501C080D180F6FC03C06FEF93
:1028C0007FEF02C0692D70E042E050E0A40EB51E1B
:1028D000C6010E948C158C0150E8F52AF3FE07C052
:1028E0001AC080E290E0B3010E94B215EA948E2DE6
:1028F00090E008171907A8F30EC0F601F7FC8591C0
:10290000F7FE81916F0190E0B3010E94B215E110D2
:10291000EA94015010400115110579F7EAC0943688
:1029200011F0993669F5F7FE08C0F5012081318173
:102930004281538184E090E00AC0F5018081918159
:102940009C01442737FD4095542F82E090E0A80E6B
:10295000B91E9FE6F92257FF09C050954095309562
:1029600021953F4F4F4F5F4FE0E8FE2ACA01B90162
:10297000A1012AE030E00E94DE15D82ED21840C016
:10298000953729F41F2D1F7E2AE030E01DC01F2D32
:10299000197F9F3661F0903720F4983509F0ACC06C
:1029A0000FC0903739F0983709F0A6C004C028E06E
:1029B00030E00AC0106114FD146020E130E004C072
:1029C00014FD166020E132E017FF08C0F5016081B8
:1029D00071818281938144E050E008C0F5018081DB
:1029E0009181BC0180E090E042E050E0A40EB51E71
:1029F000A1010E94DE15D82ED2188FE7F82EF12201
:102A0000F6FE0BC05EEFF522D91438F4F4FE07C0D1
:102A1000F2FC05C08FEEF82202C01D2D01C0192D59
:102A2000F4FE0DC0FE01ED0DF11D8081803319F41F
:102A300099EEF92208C01F5FF2FE05C003C08F2D7A
:102A4000867809F01F5F0F2DF3FC14C0F0FE0FC055
:102A50001E1510F09D2C0BC09D2C9E0C911A1E2D46
:102A600006C080E290E0B3010E94B2151F5F1E1500
:102A7000C0F304C01E1510F4E11A01C0EE2404FFD7
:102A80000FC080E390E0B3010E94B21502FF1DC0A9
:102A900001FD03C088E790E00EC088E590E00BC020
:102AA000802F867891F001FF02C08BE201C080E2A6
:102AB000F7FC8DE290E0B3010E94B21506C080E3FE
:102AC00090E0B3010E94B2159A94D914C0F3DA943D
:102AD000F101ED0DF11D808190E0B3010E94B2156E
:102AE000DD20A9F706C080E290E0B3010E94B21594
:102AF000EA94EE20C1F743CEF30166817781CB01E2
:102B00002B96E2E10C945816F999FECF92BD81BD47
:102B1000F89A992780B50895FC010590615070409E
:102B20000110D8F7809590958E0F9F1F0895FC0196
:102B30006150704001900110D8F7809590958E0FEC
:102B40009F1F0895DC01FC01672F71917723E1F746
:102B5000329704C07C916D9370836291AE17BF076A
:102B6000C8F308950F931F93CF93DF938C01EB016C
:102B70008B8181FF1BC082FF0DC02E813F818C8124
:102B80009D812817390764F4E881F9810193F9835D
:102B9000E88306C0E885F985802F0995892B31F4F3
:102BA0008E819F8101969F838E8302C00FEF1FEF5E
:102BB000C801DF91CF911F910F910895FA01AA27C3
:102BC000283051F1203181F1E8946F936E7F6E5F70
:102BD0007F4F8F4F9F4FAF4FB1E03ED0B4E03CD01E
:102BE000670F781F891F9A1FA11D680F791F8A1F01
:102BF000911DA11D6A0F711D811D911DA11D20D068
:102C000009F468943F912AE0269F11243019305D21
:102C10003193DEF6CF010895462F4770405D419312
:102C2000B3E00FD0C9F7F6CF462F4F70405D4A335F
:102C300018F0495D31FD4052419302D0A9F7EACF27
:102C4000B4E0A6959795879577956795BA95C9F756
:102C500000976105710508959B01AC010A2E069449
:102C60005795479537952795BA95C9F7620F731F02
:102C7000841F951FA01D08952F923F924F925F923F
:102C80006F927F928F929F92AF92BF92CF92DF927C
:102C9000EF92FF920F931F93CF93DF93CDB7DEB7E1
:102CA000CA1BDB0B0FB6F894DEBF0FBECDBF099475
:102CB0002A88398848885F846E847D848C849B84CC
:102CC000AA84B984C884DF80EE80FD800C811B81DA
:102CD000AA81B981CE0FD11D0FB6F894DEBF0FBE09
:0A2CE000CDBFED010895F894FFCF79
:102CEA00696E666F0D0A005354415455533A2025B4
:102CFA003032580D0A00434F4E4649473A20253094
:102D0A0032580D0A0052465F43483A20253032585D
:102D1A000D0A0052465F53455455503A2025303229
:102D2A00580D0A00454E5F41413A20253032580D70
:102D3A000A00454E5F5258414444523A20253032E7
:102D4A00580D0A004F4253455256455F54583A208F
:102D5A00253032580D0A000D0A00E8E8F0F0E2C109
:102D6A00C2C2C2C2C1C2C2C2C3C1C2C2C2C4C1C239
:102D7A00C2C2C5C1C2C2C2C6E8E8F0F0E241542BE1
:102D8A00434D47463D310D0041542B435343533D78
:102D9A002247534D220D0041542B434D47533D22A8
:102DAA0000220D000A0D0041542B434349440D00F3
:102DBA0041542B434D474C3D340D0041542B434F56
:102DCA0050533F0D004552524F520D0A004F4B0DC2
:102DDA000A006669726D776172652000302E3033A1
:102DEA0042000D0A006D6F6465200074656D705FA6
:102DFA00642032322C37350D0A0074656D705F6EAF
:102E0A002032302C32350D0A006869737465726598
:102E1A007A6120302C33300D0A006F66660D0A0085
:102E2A006461790D0A006E696768740D0A0041547D
:102E3A000D0A004154560D0A0041544D4F44453F76
:102E4A000D0A00415454454D50643F0D0A00415447
:102E5A0054454D506E3F0D0A0041544849533F0DA9
:102E6A000A0041544D4F44453D004E025302590257
:102E7A0063026E02790282025A302E30354200997C
:062E8A0002E8E8F0F0E2AE
:00000001FF
